:020000040800F2
:1000000000000820ED6F000811090008150900081C
:10001000250900083509000845090008000000000E
:1000200000000000000000000000000071680008EF
:100030005509000800000000116900085709000870
:100040003D7000083D7000083D7000083D700008DC
:100050003D7000083D7000083D7000083D700008CC
:100060003D7000083D7000083D7000083D700008BC
:100070003D7000083D7000083D7000083D700008AC
:100080003D7000083D7000083D7000083D7000089C
:100090003D7000083D7000083D7000083D7000088C
:1000A0003D7000083D7000083D7000083D7000087C
:1000B0003D7000083D7000083D7000083D7000086C
:1000C0003D7000083D7000083D7000083D7000085C
:1000D0003D7000083D7000083D7000083D7000084C
:1000E0007D0900083D7000083D7000083D70000863
:1000F0003D7000083D7000083D7000083D7000082C
:100100003D7000083D7000083D7000083D7000081B
:100110003D7000083D7000083D7000083D7000080B
:100120003D7000083D7000083D7000083D700008FB
:100130003D7000083D7000083D7000083D700008EB
:100140003D7000083D7000083D7000086D09000812
:100150003D7000083D7000083D7000083D700008CB
:100160003D7000083D7000083D7000083D700008BB
:100170003D7000083D7000083D7000080000000060
:100180003D7000083D7000083D7000083D7000089B
:100190003D7000083D7000083D7000083D7000088B
:1001A0003D7000083D7000083D7000083D7000087B
:1001B0003D7000083D7000083D7000083D7000086B
:1001C0003D7000083D700008000000003D70000810
:1001D0003D7000083D7000083D7000083D7000084B
:1001E0003D7000083D7000083D7000083D7000083B
:0801F0003D7000083D7000089D
:1002000010B5054C237833B9044B13B10448AFF350
:1002100000800123237010BDE001002000000000D9
:10022000D880000808B5034B1BB103490348AFF35E
:10023000008008BD00000000E4010020D880000814
:1002400001F0FF01102A2BDB10F0070F08D010F887
:10025000013B013A8B422DD010F0070F42B3F6D18B
:10026000F0B441EA012141EA014122F007047FF0A4
:1002700000070023F0E80256083C85EA010586EAFB
:10028000010685FA47F5A3FA87F586FA47F6A5FA37
:1002900087F68EB9EED1F0BC01F0FF0102F0070243
:1002A00032B110F8013B013A83EA010313B1F8D1EE
:1002B0000020704701387047002D06BF35460338CF
:1002C000073815F0010F07D1013015F4807F02BF08
:1002D000013015F4C03F0130F0BC0138704700BF59
:1002E00053B94AB9002908BF00281CBF4FF0FF319D
:1002F0004FF0FF3000F06EB9ADF1080C6DE904CE9F
:1003000000F006F8DDF804E0DDE9022304B07047F0
:100310002DE9F047089D04468C46002B40F0838071
:100320008A42174647D9B2FA82F242B1C2F120009E
:1003300024FA00F09140974040EA010C94404FEAC3
:100340001748230CBCFBF8F61FFA87FE08FB16C102
:1003500043EA014306FB0EF1994209D9FB1806F165
:10036000FF3080F01981994240F21681023E3B44F1
:100370005B1AA4B2B3FBF8F008FB103344EA034461
:1003800000FB0EFEA64509D93C1900F1FF3380F0B1
:100390000581A64540F2028102383C4440EA06400D
:1003A000A4EB0E0400261DB1D4400023C5E9004390
:1003B0003146BDE8F08702B9FFDEB2FA82F2002AC8
:1003C00050D1CB1B4FEA174E1FFA87F80126B3FB1B
:1003D000FEFC210C0EFB1C3341EA034108FB0CF32D
:1003E0008B4207D979180CF1FF3002D28B4200F210
:1003F000E9808446C91AA3B2B1FBFEF00EFB1011CE
:1004000043EA014408FB00F8A04507D93C1900F174
:10041000FF3302D2A04500F2D9801846A4EB0804AD
:1004200040EA0C40BFE78B4209D9002D00F0B180B3
:100430000026C5E9000130463146BDE8F087B3FA31
:1004400083F6002E4AD18B4202D3824200F2B8805A
:10045000841A61EB030101208C46002DA8D0C5E968
:10046000004CA5E7C2F1200320FA03F6974001FAF9
:1004700002F04FEA174ED9403043030CB1FBFEF6B1
:100480001FFA87F80EFB161143EA014306FB08F139
:10049000994204FA02F409D9FB1806F1FF3C80F0F6
:1004A0008D80994240F28A80023E3B445B1A81B2C1
:1004B000B3FBFEF00EFB103341EA034100FB08F3EF
:1004C0008B4207D9791800F1FF3C73D28B4271D966
:1004D00002383944CB1A40EA064678E7C6F1200CC8
:1004E00003FA06F422FA0CF31C4320FA0CF701FA83
:1004F00006F34FEA144E21FA0CF11F433B0CB1FBFB
:10050000FEF91FFA84F80EFB191143EA014109FBB9
:1005100008FA8A4502FA06F200FA06F308D96118C9
:1005200009F1FF3048D28A4546D9A9F10209214490
:10053000A1EB0A01BFB2B1FBFEF00EFB101147EABE
:10054000014700FB08F8B84507D9E71900F1FF316A
:100550002ED2B8452CD90238274440EA0940A7EBEF
:100560000807A0FB02894F45C64649461AD317D053
:100570005DB1B3EB0E0267EB010707FA0CFCF2402A
:100580004CEA0202F740C5E9002700263146BDE8E3
:10059000F0872E4628460BE70646E9E61846FDE6B4
:1005A0004345E5D2B8EB020E69EB04010138DFE701
:1005B0000846D2E760468DE78146B9E7664675E7AB
:1005C00030464AE7ACF1020C394413E702383C44A8
:1005D00024E700BF704700BF054BD3F8882042F4E2
:1005E0007002C3F888204FF000629A60704700BF25
:1005F00000ED00E0F0B58DB0002407940894099454
:100600000A940B94354B1A6B42F004021A631A6B6E
:1006100002F004020192019A1A6B42F080021A63FE
:100620001A6B02F080020292029A1A6B42F00102E7
:100630001A631A6B02F001020392039A1A6B42F0DA
:1006400002021A631A6B02F002020492049A1A6BF5
:1006500042F008021A631A6B02F008020592059A2A
:100660001A6B42F040021A631B6B03F040030693BF
:10067000069B1B4F224644F28101384602F0AFFE32
:10068000184D22464021284602F0A9FE4FF400539F
:100690000793154B0893099407A9144802F0A8FD85
:1006A00044F2810307930126089609940A9407A946
:1006B000384602F09DFD40230793089609940A945A
:1006C00007A9284602F094FD802307930894099413
:1006D00007A9284602F08CFD0DB0F0BD003802409D
:1006E00000040240001802400000111000080240FF
:1006F00008B54FF47A7005F045FBFAE708B50146F6
:10070000014806F091FD08BD0881000808B50C48B5
:100710000C4B03604FF4E133436000238360C360FC
:1007200003610C2242618361C3610362436203F08F
:10073000B2FD00B908BD0448FFF7E0FFFAE700BFCB
:1007400010470020004800401481000800B5B9B0EF
:10075000342200212BA806F0B5FC00212691279118
:10076000289129912A91902202A806F0ABFC02F070
:100770004BFE2C4B1A6C42F080521A641B6C03F037
:1007800080530093009B284A136823F4404343F4AA
:1007900080431360136803F440430193019B0123DA
:1007A0002B934FF4A0222C923093022231924FF4DB
:1007B000800332930423339360213491359236932E
:1007C0002BA801F0AFFEE8B902F026FEF0B90F2326
:1007D000269302232793002328934FF480522992D3
:1007E0002A93032126A802F025F998B90F4B02930A
:1007F00000231593219302A802F0F8F970B939B0DB
:100800005DF804FB0A48FFF779FFDDE70948FFF7C9
:1008100075FFDCE70848FFF771FFE7E70748FFF7D8
:100820006DFFECE70038024000700040000120003E
:10083000248100083C810008608100088481000850
:1008400000B583B002F0B4FEFFF780FFFFF7D2FEE1
:10085000FFF75CFF00F02CFA144800F0B1FA144BDB
:1008600001930324009400234FF47A721149124833
:1008700005F0E6F8114B0193009400234FF47A72CF
:100880000F49104805F0DCF80F4B0193002300934B
:100890004FF47A720D490E4805F0D2F80D4806F073
:1008A00049FD62B605F000F9FEE700BF9047002061
:1008B000E8470020A4810008796B0008DC4700208D
:1008C000B8810008D90800080C470020C88100083A
:1008D000F1060008D481000870470000034B036054
:1008E000034B0B6080231360704700BFFC030020A4
:1008F000FC010020034B0360034B0B604FF480733B
:1009000013607047580800205804002030BF70471B
:100910007047000008B5024806F086FCFEE700BFFD
:10092000E881000808B5024806F07EFCFEE700BF3B
:10093000F481000808B5024806F076FCFEE700BF27
:100940000C82000808B5024806F06EFCFEE700BF06
:1009500020820008704708B502F036FE05F062FB01
:10096000012800D108BD06F005F8FBE708B50248EC
:1009700000F04CFC08BD00BF084D002008B54FF446
:10098000005002F033FD08BD82B00F4B1A6C42F0EC
:1009900080521A641A6C02F080520092009A5A6CCB
:1009A00042F480425A645B6C03F480430193019BE0
:1009B000064B4FF480225A624FF400325A624FF4D1
:1009C00080325A6202B070470038024000ED00E009
:1009D0000268114B9A4200D0704700B587B04FF4BF
:1009E000407301931223029301230393032304937F
:1009F000042305930DEB0301084802F0F9FB084BB3
:100A00001A6C42F400121A641B6C03F40013009376
:100A1000009B07B05DF804FB005400400004024056
:100A20000038024000B589B0002303930493059376
:100A3000069307930268154B9A4202D009B05DF8FD
:100A400004FB03F5F8331A6C42F480221A641A6C22
:100A500002F480220192019A1A6B42F008021A6392
:100A60001B6B03F008030293029B4FF44073039344
:100A7000022304930023059303230693072307937C
:100A800003A9034802F0B4FBD8E700BF00480040C8
:100A9000000C024010B500240EE0094B195D080956
:100AA00001F00F01012202FA01F189B2054B03EBBB
:100AB000802002F094FC0134032CEEDD10BD00BF59
:100AC0003482000800000240F0B58BB02C4B1A6B4A
:100AD00042F004021A631A6B02F004020192019AB6
:100AE0001A6B42F080021A631A6B02F080020292C3
:100AF000029A1A6B42F001021A631A6B02F00102A9
:100B00000392039A1A6B42F002021A631B6B03F002
:100B100002030493049B40F23333059301250695A9
:100B2000002407940894174E05A9304602F060FB94
:100B3000802705970694079405A9304602F058FBD4
:100B400040230593104B0693079405A9304602F005
:100B50004FFB40F27943059306950794089405A945
:100B60000A4802F045FB059706950794089405A9E5
:100B7000074802F03DFBFFF78DFF0BB0F0BD00BF53
:100B80000038024000000240000011100004024042
:100B90000008024070B588B0424B1A6B42F0020266
:100BA0001A631B6B03F002030193019B3E4C01226D
:100BB0004FF48071204602F012FC01224FF40071C4
:100BC000204602F00CFC4FF440730393112304936E
:100BD0000123059303A9204602F00AFB00261FE02B
:100BE000314D00224FF48071284602F0F8FB0120BD
:100BF00002F0FCFC01224FF48071284602F0EFFB6A
:100C0000012002F0F3FC0134092CE9DD4FF40071FE
:100C1000254802F0DDFB28B9731C062E02DC1E46B7
:100C20000024F1E74FF400711F4802F0D1FB08B136
:100C300008B070BD1B4B1A6B42F001021A631B6BAC
:100C400003F001030293029B2023039301230493E7
:100C50000023059303A9154802F0CAFA134C012298
:100C60002021204602F0BBFB212002F0BFFC002225
:100C70002021204602F0B3FB212002F0B7FC012224
:100C80002021204602F0ABFB212002F0AFFC002225
:100C90002021204602F0A3FB4FF4257002F0A6FCB1
:100CA000DCE700BF003802400004024000000240C0
:100CB0007047000030B585B00C4615468DF80F0022
:100CC0006423009301230DF10F0284210948006879
:100CD00002F03CFE08B105B030BD642303FB05F310
:100CE0000093ABB2224684210248006802F0ECFE79
:100CF000F1E700BFEC47002010B586B014468DF830
:100D000008000DF1090006F0CFF9631C642200927F
:100D10009BB202AA84210348006802F017FE06B0C5
:100D200010BD00BFEC47002008B505490B8843F40F
:100D3000F0630B8002221220FFF7DEFF08BD00BF28
:100D4000F047002030B589B0194B1A6B42F0010210
:100D50001A631A6B02F001020092009A1A6B42F0B9
:100D600002021A631B6B03F002030193019B4FF411
:100D7000866302930F4D03950024049402A90E4844
:100D800002F036FA012302930395049402A90B485A
:100D900002F02EFA4FF2FF73ADF81E3002220DF171
:100DA0001E011420FFF7A8FFFFF7BEFF09B030BDFA
:100DB0000038024000001110000002400004024010
:100DC00070B588B00446FFF7E5FE234B1A6B42F07E
:100DD00002021A631A6B02F002020092009A1A6C65
:100DE00042F400121A641B6C03F400130193019B7C
:100DF0004FF44073039312230493012605960025B4
:100E000006950423079303A9144802F0F1F9144B43
:100E10002360144B6360A560E66025616561E56150
:100E20002562204602F034FD0F4B1C60022202A90D
:100E30002846FFF73FFF30B99DF808301BB99DF8F1
:100E40000930162B03D0FFF73FFE08B070BD074BEB
:100E50001E60FFF777FFF8E7003802400004024009
:100E600000540040380F3000EC470020B408002048
:100E700010B582B004468DF807000A2301220DF157
:100E80000701034803F064F9204602B010BD00BF1B
:100E9000104700202DE9F04782B0D0F80080C1EB68
:100EA000C10300EB83035A6D1B6D9A4255D8074668
:100EB0000C46C1469B1AC1EBC10200EB8202526C88
:100EC0009A4200D31A4602F1030A4FEA9A0A15E041
:100ED00006F1030A4FEA9A0AC4EBC40507EB85053D
:100EE000A96C3B7C0093B3B2E2B2404601F0F2F849
:100EF000AB6C3344AB646B6D1E446E6509EB4413FD
:100F000003F510639B699BB2534512D3C4EBC40233
:100F100007EB8202516D136D99420AD24BB15B1AF5
:100F2000C4EBC40207EB8202566C9E42D0D31E462D
:100F3000CEE7C4EBC40007EB80073A6D7B6D9A42A5
:100F40000FD804F00F040123A340D8F8344824EA52
:100F50000304C8F83448002000E0012002B0BDE8D6
:100F6000F0870020FAE7F0B58BB0002800F09380FE
:100F70000546046890F8BD332BB3032385F8BD33D1
:100F8000E36B13F4807F01D100232B61286800F00C
:100F90002DFE2C4654F8107B6E460FCC0FC60FCC9E
:100FA0000FC694E8030086E803002B1D0ECB3846DD
:100FB00000F066FD044658B1022385F8BD330124D4
:100FC00020460BB0F0BD80F8BC3305F079FED4E7C5
:100FD0000021286800F010FE234616E0C3EBC30290
:100FE00005EB8202012182F83D1082F83C30A2F824
:100FF0004230002182F83F1051649164C3EBC30278
:1010000005EB820211650133DBB269688B42E5D3DF
:1010100016E0C4EBC40305EB8303002283F8FD2133
:1010200083F8FC4183F8FF21C3F80422C3F80822A7
:10103000C4EBC40305EB8303C3F810220134E4B20C
:10104000A142E6D82C4654F8107B6E460FCC0FC652
:101050000FCC0FC694E8030086E803002B1D0ECBCF
:10106000384600F00FFE044660B9002385F838309A
:10107000012385F8BD336B6A012B08D0286801F085
:10108000CFF99DE7022385F8BD33012498E7284670
:1010900000F0C4FCF2E7012492E790F8BC33012B86
:1010A0000ED010B50446012380F8BC33006801F06F
:1010B000ABF9206800F094FD002084F8BC0310BD5B
:1010C0000220704770B504460D460068066C00EBC0
:1010D000411303F530639A682169012911D035491C
:1010E0008E4250D03DB9C5EBC50304EB8303D3F862
:1010F0001032002B58D0E9B2204605F039FE00200E
:1011000070BD12F0080F09D02B498E42F7D912F4A6
:10111000004FF4D04FF400429A60F0E712F0200F35
:1011200002D020229A60EAE712F0280FE7D1224984
:101130008E4206D912F4004F03D04FF400429A6059
:10114000DDE7C5EBC50204EB8202D2F804121B698D
:10115000C3F31203C91AC2F81412D2F80412D2F857
:1011600008320B44C2F8083215B9D2F8103223B154
:10117000E9B2204605F0FCFDC1E704F571720121DA
:1011800001F0A0F9F4E712F4004F03D04FF400424D
:101190009A60B4E712F0200F01D020229A60E9B2E1
:1011A000204605F0E5FDAAE704F57172002101F083
:1011B00089F9A0E70A31544F0A30544F38B5044634
:1011C00003681D6C03EB4113D3F8081B0E4A9542CC
:1011D00007D903F5306311F4004F02D04FF40042F9
:1011E0009A60204605F0BCFD074B9D4202D9236959
:1011F000012B01D0002038BD04F571720121206857
:1012000001F060F9F6E700BF0A30544F2DE9F04FC6
:1012100083B004460568284601F03FF910B103B0D9
:10122000BDE8F08F2F460646206801F005F900283A
:10123000F5D0206801F000F910F0020F04D0226808
:10124000536903F002035361206801F0F5F810F0D0
:10125000100F15D02268936923F010039361D5F81D
:10126000208008F00F09C8F34343022B00F085806B
:10127000062B00F0AA802268936943F01003936163
:10128000206801F0D9F810F4002F40F0B0802068F9
:1012900001F0D2F810F4802F40F0F480206801F0C3
:1012A000CBF80028C0F26081206801F0C5F810F486
:1012B000006F0AD0D5F8083813F0010F40F06E81A6
:1012C0002268536903F400635361206801F0B4F8A5
:1012D00010F0006F15D02268536903F0006353616A
:1012E00094F8F433002B40F05D81012184F8F4136D
:1012F00023685B6DC3F38303C4F8F833204605F01D
:10130000F5FD206801F098F810F4805F40F04E8100
:10131000206801F091F810F4005F40F0AC81206883
:1013200001F08AF810F0080F40F0BD81206801F04C
:1013300083F810F4801F40F0BF81206801F07CF832
:1013400010F4001F40F0C281206801F075F810F021
:10135000804F40F0C581206801F06EF810F0040F56
:101360003FF45DAF23685D6815F0040F40F0C18164
:10137000226853682B43536051E747F6F07318EA2D
:10138000030F3FF478AF4FEA181B4FEAC9030193EC
:10139000C9EBC90A04EB8A0AC8F30A12DAF8081280
:1013A000284600F0B5FFCBF30A0BDAF808325B44AD
:1013B000CAF80832019BA3EB090304EB8303D3F8BB
:1013C00014325B44CAF8143255E7082204F57171EF
:1013D000284600F09DFFC8F30A18C9EBC90204EBC8
:1013E0008202D2F814324344C2F8143243E7206830
:1013F00001F026F88046B14617E007EB49130122B9
:10140000C3F8082B49462046FFF75CFE1DE007EBBA
:1014100049130822C3F8082B49462046FFF7CEFEA1
:1014200016E009F101094FEA5808B8F1000F3FF43E
:101430002EAF18F0010FF4D05FFA89F1206801F0A7
:101440000FF8824610F0010FD7D11AF0080FDED145
:101450001AF0100F04D007EB49131022C3F8082B21
:101460001AF0200F04D007EB49132022C3F8082BF1
:101470001AF4005FD5D007EB49134FF40052C3F8BC
:10148000082BCEE7206800F0E3FF8046B1462AE053
:101490005946204605F078FC1AF0080F04D007EBF7
:1014A00049130822C3F808291AF0100F04D007EBDB
:1014B00049131022C3F808291AF0400F04D007EB93
:1014C00049134022C3F808291AF0020F04D007EB91
:1014D00049130222C3F808291AF0800F3FD109F1FD
:1014E00001094FEA5808B8F1000F3FF4D7AE18F0E1
:1014F000010FF4D05FFA89FB5946206800F0B9FF6C
:10150000824610F0010FC7D009F00F03012101FA44
:1015100003F2D7F8343823EA0203C7F8343807EB6C
:101520004913C3F8081923698B42B1D1C9EBC90328
:1015300004EB8303596C9A6C0A449A64B9F1000F66
:10154000A6D1C9EBC90304EB83031B6D002B9FD10C
:1015500004F571720121206800F0B4FF98E7494654
:101560002046FFF797FCBAE7D5F8043823F00103CB
:10157000C5F8043894F8F433012B08D0204605F060
:1015800047FC2268536903F0004353618CE6002155
:1015900084F8F413204605F0A9FCF2E7204605F094
:1015A0001FFC8DE6204605F01BFCAAE605F5006849
:1015B000D8F8043023F00103C8F804301021206863
:1015C00000F032FB20E007EB46134FF67F31C3F803
:1015D0000819D3F8002922F40012C3F80029D3F81F
:1015E000002942F00062C3F80029C3F8081BD3F8B1
:1015F000002B22F40012C3F8002BD3F8002B42F08A
:101600000062C3F8002B01366368B342DBD8D8F818
:101610001C3043F00113C8F81C30236BEBB1D8F831
:10162000843043F00B03C8F88430D8F8443043F0DA
:101630000B03C8F84430D5F8003823F4FE63C5F82E
:10164000003804F57172217C206800F03BFF2268AD
:10165000536903F4805353615AE6D8F8142042F2D8
:101660002B031343C8F81430D8F8103043F00B03A1
:10167000C8F81030DFE7206800F014FF206800F0A1
:10168000D7FBE060256801F08BFA0146227B2846F3
:1016900000F034FA204605F089FB2268536903F410
:1016A000005353613BE6204605F079FB22685369FD
:1016B00003F00803536139E60021204605F0B4FB2E
:1016C0002268536903F48013536136E600212046F3
:1016D00005F0A4FB2268536903F40013536133E659
:1016E000204605F0A7FB2268536903F0804353614D
:1016F00031E6204605F0A4FB3AE690F8BC33012B16
:101700000DD010B50446012380F8BC3380F83810A2
:10171000006800F069FE002084F8BC0310BD0220C0
:101720007047F8B507460C4611F0800F27D101F03D
:101730000F05C5EBC506B60006F5FC760644311D5F
:10174000C5EBC50500EB8505002085F8FD0104F01B
:101750000F040C708A60CB704A7802B1CC80022BE7
:101760001DD097F8BC33012B1CD0012387F8BC3364
:10177000386800F06DFB002087F8BC03F8BD01F06D
:101780000F00C0EBC0018900383139440431C0EB8F
:10179000C00007EB8000012580F83D50D7E700230B
:1017A0000B71DEE70220E9E710B504460A4611F0A6
:1017B000800F20D101F00F00C0EBC0039B0003F5A8
:1017C000FC732344191DC0EBC00004EB8000002310
:1017D00080F8FD3102F00F020A7094F8BC33012B3F
:1017E00019D0012384F8BC33206800F079FB002075
:1017F00084F8BC0310BD01F00F00C0EBC0039B00D8
:1018000038332344191DC0EBC00004EB80000123D2
:1018100080F83D30DEE70220ECE738B501F00F0438
:10182000C4EBC401890001F5FC7101440431C4EB2F
:10183000C40500EB8505C5F80822C5F81032002361
:10184000C5F8143285F8FD3185F8FC410369012B98
:1018500006D064B9DAB2006800F0B0FB002038BDF1
:10186000C4EBC40500EB8505C5F80C22F1E7DAB23C
:10187000006800F043FCF1E738B501F00F04C4EB59
:10188000C4018900383101440431C4EBC40500EBC4
:101890008505AA642B6500236B65012385F83D301F
:1018A00085F83C400369012B06D05CB9DAB20068C8
:1018B00000F084FB002038BDC4EBC40500EB8505B7
:1018C000EA64F2E7DAB2006800F018FCF2E738B533
:1018D00001F00F054268954239D804460B4611F0D5
:1018E000800F1FD1C1EBC101890001F5FC710144DA
:1018F0000431C3EBC30300EB8303002283F8FD2113
:1019000001238B700D7094F8BC33012B21D001237F
:1019100084F8BC33206800F00CFD8DB1002084F801
:10192000BC0338BDC5EBC501890038310144043121
:10193000C5EBC50300EB8303012283F83D20DFE7FD
:1019400004F57172217C206800F0BCFDE6E70120FF
:10195000E7E70220E5E701F00F034268934231D840
:1019600010B5044611F0800F1ED1C3EBC3018900EE
:1019700001F5FC7101440431C3EBC30200EB8202A8
:10198000002082F8FD0100228A700B7094F8BC33AD
:10199000012B19D0012384F8BC33206800F0F6FC39
:1019A000002084F8BC0310BDC3EBC30189003831AB
:1019B00001440431C3EBC30200EB8202012082F830
:1019C0003D00E0E7012070470220ECE730B40468F6
:1019D000606A19B940EA0240A06218E00D46A36AA5
:1019E00000EB13400023691E8B4209D203F1400132
:1019F00004EB8101496800EB11400133DBB2F2E7EF
:101A000040EA024005F13F0104EB810148600020FB
:101A100030BC704703685962002070470346026873
:101A20000121C0F8FC13002083F8F403936943F00C
:101A300000639361516D024B0B435365704700BFC8
:101A400003000010002301330C4A934211D80269AD
:101A5000002AF8DA036943F001030361002301332C
:101A6000064A934207D8026912F0010FF7D100200D
:101A70007047032070470320704700BF400D0300EC
:101A800084B010B5044603A880E80E00089B012B23
:101A90001DD1A36B23F48033A363E268164B13407C
:101AA000E360E36823F44013E3600F9B012B09D04C
:101AB0002046FFF7C7FF069B012B14D0BDE810405E
:101AC00004B07047E36843F48013E360F0E7E36831
:101AD00043F04003E3602046FFF7B4FFA36B43F4F9
:101AE0008033A363E7E7A36843F00603A360A3681A
:101AF00043F02003A360E1E7BFFFBDFF022A0AD045
:101B00000921C26822F47052C260C36843EA81238B
:101B1000C36000207047204B0B44204A934229D9D0
:101B20001F4B0B441F4A934226D91F4B0B441F4A9D
:101B3000934223D91E4B0B441E4A934220D31E4B83
:101B40000B441E4A93421DD91D4B0B441D4A934220
:101B50001AD31D4B0B441D4A934217D31C4B0B4405
:101B60001C4A934214D31C4B0B441C4A934211D27F
:101B70000721C6E70F21C4E70E21C2E70D21C0E708
:101B80000C21BEE70B21BCE70A21BAE70921B8E71F
:101B90000821B6E70621B4E7405327FFFF340C00C5
:101BA000401E1BFF3F420F0000DC0BFF7F4F120067
:101BB000808CF9FE20D6130060B6E5FE5FE31600C8
:101BC00000D3CEFE40771B00C05BB3FEC091210066
:101BD00000CA91FE20753800E05459FEE09C410097
:101BE000836843F00103836000207047836823F01B
:101BF000010383600020704708B5C36823F0C04329
:101C0000C360012909D069B9C36843F08043C36048
:101C1000322001F0EBFC002008BDC36843F0005304
:101C2000C360F5E70120F7E7890141F02001016178
:101C300000230133054A934205D8026912F0200FB0
:101C4000F7D1002070470320704700BF400D03000C
:101C50001023036100230133054A934205D802692A
:101C600012F0100FF7D1002070470320704700BF1B
:101C7000400D0300D0F800381943C0F800180020C8
:101C80007047000084B02DE9F843044609A880E8B5
:101C90000E002546002306E003F1400204EB820219
:101CA0000021516001330E2BF6D9DDF84C80B8F1DC
:101CB000000F26D1D4F8043843F00203C4F80438E6
:101CC000A36B23F40013A363236843F04003236052
:101CD000236843F0800323600023C4F8003E04F52A
:101CE0000066D4F80038C4F800380E9B012B0DD0E4
:101CF000032B1CD10B9BABB900212046FFF7BAFF89
:101D000019E0A36B43F40013A363E5E70B9B23B92E
:101D100000212046FFF7AEFF0DE001212046FFF72E
:101D2000A9FF08E001212046FFF7A4FF03E00321FB
:101D30002046FFF79FFF10212046FFF775FF8146E1
:101D400008B14FF001092046FFF782FF08B14FF0BC
:101D50000109002333617361F3610AE0C3B94FF0F5
:101D60000060C2F8000900220A614FF67F328A60E3
:101D70000133099F9F4210D905EB431202F5106110
:101D8000D2F800090028E9DB0020C2F80009EAE7E0
:101D90004FF09040C2F80009E5E700230AE0BBB12C
:101DA0004FF09040C2F8000B00220A614FF67F32DC
:101DB0008A6001339F4210D905EB431202F530616E
:101DC000D2F8000B0028EADB0020C2F8000BEBE79A
:101DD0004FF00060C2F8000BE6E7336923F480732C
:101DE00033610023A3616FF0804363610C9B1BB9D7
:101DF000A36943F01003A361A2690B4B1343A361D2
:101E00000F9B1BB1A36943F00803A361B8F1010F55
:101E100004D04846BDE8F84304B07047A269034BBC
:101E20001343A361F5E700BF00383C800400004085
:101E3000D0F8083813F0060305D0062B18BF022B84
:101E400003D102207047002070470F207047000028
:101E500070B40C784B78012B20D0D0F81C3804F0EB
:101E60000F060122B24043EA0243C0F81C3800EBDF
:101E70004410D0F8003B13F4004F0CD1D0F8002BE5
:101E80008B68C3F30A03C97843EA81431343134AB7
:101E90001A43C0F8002B002070BC7047D0F81C28F3
:101EA00004F00F06B3409BB21343C0F81C3800EB9C
:101EB0004410D0F8003913F4004FECD1D0F80029C9
:101EC0008B68C3F30A03C97843EA814343EA845425
:101ED0001443024B2343C0F80039DCE700800010B4
:101EE00030B40B784A78012A24D000EB4313D3F89E
:101EF000002B002A50DBD0F83C580A7802F00F0281
:101F0000012404FA02F225EA0242C0F83C28D0F883
:101F10001C28097801F00F018C4022EA0444C0F823
:101F20001C48D3F8001B234A0A40C3F8002B0020AA
:101F300030BC704700EB4313D3F80029002A1EDBA6
:101F4000D0F83C580A7802F00F02012404FA02F299
:101F500092B225EA0202C0F83C28D0F81C28097881
:101F600001F00F018C40A4B222EA0404C0F81C481E
:101F7000D3F80019104A0A40C3F80029D7E7D3F86C
:101F8000002942F00062C3F80029D3F8002942F08A
:101F90008042C3F80029D3E7D3F8002B42F0006257
:101FA000C3F8002BD3F8002B42F08042C3F8002B7B
:101FB000A1E700BF0078F3EF007833EC70B40B7842
:101FC0004C78012C24D000EB431000F530631D69E0
:101FD0003E4C2C401C611D693D4C2C401C614C69E1
:101FE0000CB18C684C611C6944F400241C611C69B0
:101FF0008D68C5F312052C431C61012A61D0D0F80D
:10200000003B43F00443C0F8003B002070BC704725
:102010004C695CBB00EB4314D4F810692C4D35407F
:10202000C4F81059D4F8105945F40025C4F81059D3
:10203000D4F81069254D3540C4F81059012A31D023
:1020400000EB4313D3F8002942F00442C3F80029FF
:102050004B69002BD9D0D0F834380A7802F00F0140
:1020600001228A401343C0F83438CEE700EB431412
:1020700004F510642669154D354025612669144D17
:10208000354025614E698D68AE4200D94D612569A4
:1020900045F40025256125694E69C6F312063543CE
:1020A0002561CBE70A691AB100EB4311C1F8142985
:1020B00000EB4310D0F8002942F00442C0F8002998
:1020C000A3E7CA68002A9AD05A6198E70000F8FF8F
:1020D000FFFF07E070B49DF80C4064B903339D081E
:1020E000AC4208D200EB023303F5805351F8046B85
:1020F0001E600134F4E7002070BC7047F0B583B077
:102100000B784C78012C29D000EB431303F5306495
:1021100026697C4D3540256126697B4D354025611A
:102120004D69002D40F0BF8025698E68C6F3120608
:1021300035432561256945F400252561012A00F014
:10214000C780CA78012A00F0C980D3F8002B42F07A
:102150000442C3F8002B002003B0F0BD4C6974BBEF
:1021600000EB4314D4F81069674D3540C4F810599A
:10217000D4F8105945F40025C4F81059D4F8106962
:10218000604D3540C4F81059012A4AD000EB431382
:10219000D3F8004944F00444C3F80049CC78012C3A
:1021A00068D04B69002BD6D0D0F83428097801F0DC
:1021B0000F040121A1400A43C0F83428CBE700EB0B
:1021C0004314D4F810694F4D3540C4F81059D4F871
:1021D00010694D4D3540C4F81059D4F810694D6957
:1021E0008F683D44013DB5FBF7F5484F07EAC5450B
:1021F0003543C4F81059D4F810594E69C6F3120685
:102200003543C4F8105904F51064CD78012DBBD1C5
:10221000256925F0C0452561256945F000552561F2
:10222000B2E70A691AB100EB4314C4F81429CA785A
:10223000012A08D000EB4313D3F8002942F00442EE
:10224000C3F8002987E7D0F8082812F4807F08D166
:1022500000EB4311D1F8002942F00052C1F80029E7
:10226000E8E700EB4311D1F8002942F08052C1F8B1
:102270000029DFE7D0F8084814F4807F0CD1D3F8A8
:10228000004944F00054C3F8004900928B8A0A7850
:10229000C968FFF71FFF5EE7D3F8004944F0805498
:1022A000C3F80049F1E78E683544013DB5FBF6F50A
:1022B0002669164F07EAC5473E43266127698E689F
:1022C000ADB206FB05F5C5F312053D43256135E7C3
:1022D000CA68002A3FF435AF626132E7D0F80828B7
:1022E00012F4807F06D1D3F8002B42F00052C3F8DD
:1022F000002B2AE7D3F8002B42F08052C3F8002BC2
:1023000023E700BF0000F8FFFFFF07E00000F81F11
:1023100010B4033294080023A34206D200F5805281
:10232000126841F8042B0133F6E708465DF8044BC8
:1023300070470B784A78012A14D000EB4310D0F88C
:10234000002B002A06DB2BB1D0F8003B23F08043A2
:10235000C0F8003BD0F8003B43F40013C0F8003B4A
:102360000020704700EB4310D0F80029002A06DB5C
:102370002BB1D0F8003923F08043C0F80039D0F8F1
:10238000003943F40013C0F80039E9E70B784A78C4
:10239000012A0ED000EB4310D0F8003B23F40013C9
:1023A000C0F8003BCB78023BDBB2012B15D90020F3
:1023B000704700EB4310D0F8003923F40013C0F845
:1023C0000039CB78023BDBB2012BF0D8D0F80039D2
:1023D00043F08053C0F80039E9E7D0F8003B43F000
:1023E0008053C0F8003BE2E7D0F8003823F4FE63E6
:1023F000C0F80038D0F80038090101F4FE61194333
:10240000C0F800180020704708B5D0F8043823F051
:102410000203C0F80438032001F0E8F8002008BDEA
:1024200008B5D0F8043843F00203C0F8043803209C
:1024300001F0DCF8002008BD426980691040704757
:10244000D0F8183800F50060C0691840000C7047DB
:10245000D0F8183800F50060C069184080B27047A5
:1024600000EB4111D1F8082B00F5006040691040E5
:10247000704710B4D0F81048D0F8343801F00F028B
:10248000D340DB01DBB2234300EB411000F51060C9
:10249000806818405DF8044B7047406900F0010007
:1024A00070470000D0F80029054B1340C0F80039F0
:1024B000D0F8043843F48073C0F804380020704723
:1024C00000F8FFFF10B4046C154B9C4203D9D0F800
:1024D000003B002B16DB0024C0F8104BD0F8104B4B
:1024E00044F40024C0F8104BD0F8104B44F018040A
:1024F000C0F8104BD0F8104B44F0C044C0F8104B5B
:10250000012903D000205DF8044B7047C0F8142B5C
:10251000D0F8003B43F08023C0F8003BF2E700BF57
:102520000A30544F002800F0068270B582B004468D
:10253000036813F0010F29D0A74B9B6803F00C032D
:10254000042B1AD0A44B9B6803F00C03082B0FD06C
:102550006368B3F5803F40D0002B54D19E4B1A687E
:1025600022F480321A601A6822F480221A6039E05C
:10257000994B5B6813F4800FEAD0974B1B6813F4F8
:10258000003F03D06368002B00F0D781236813F06D
:10259000020F74D0904B9B6813F00C0F5ED08E4BE3
:1025A0009B6803F00C03082B53D0E368002B00F06A
:1025B0008980894A136843F00103136001F010F821
:1025C0000546854B1B6813F0020F72D101F008F825
:1025D000401B0228F5D90320B4E17F4A136843F475
:1025E0008033136063682BB300F0FAFF05467A4B23
:1025F0001B6813F4003FC9D100F0F2FF401B6428B0
:10260000F5D903209EE1B3F5A02F09D0724B1A68CB
:1026100022F480321A601A6822F480221A60E1E7FC
:102620006D4B1A6842F480221A601A6842F48032B4
:102630001A60D7E700F0D4FF0546674B1B6813F418
:10264000003FA3D000F0CCFF401B6428F5D9032045
:1026500078E1614B5B6813F4800FA6D15E4B1B6879
:1026600013F0020F03D0E368012B40F068815A4A4F
:10267000136823F0F803216943EAC1031360236858
:1026800013F0080F46D0636983B3534A536F43F086
:102690000103536700F0A4FF05464F4B5B6F13F037
:1026A000020F37D100F09CFF401B0228F5D9032010
:1026B00048E1494A136823F0F803216943EAC1035A
:1026C0001360DCE7444A136823F00103136000F051
:1026D00087FF0546404B1B6813F0020FCFD000F078
:1026E0007FFF401B0228F5D903202BE13A4A536FA4
:1026F00023F00103536700F073FF0546364B5B6F11
:1027000013F0020F06D000F06BFF401B0228F5D932
:10271000032017E1236813F0040F7DD02E4B1B6CB0
:1027200013F0805F0BD12C4B1A6C42F080521A646C
:102730001B6C03F080530193019B012500E00025F1
:10274000264B1B6813F4807F0ED0A368012B1FD08B
:10275000002B35D1204B1A6F22F001021A671A6F35
:1027600022F004021A6718E01C4A136843F48073CD
:10277000136000F035FF0646184B1B6813F4807F8A
:10278000E3D100F02DFF801B6428F5D90320D9E0A8
:10279000114A136F43F001031367A36853B300F0AA
:1027A0001FFF06460C4B1B6F13F0020F33D100F0D6
:1027B00017FF801B41F288339842F3D90320C1E010
:1027C000052B0DD0044B1A6F22F001021A671A6F05
:1027D00022F004021A67E0E700380240007000406F
:1027E000604B1A6F42F004021A671A6F42F001023E
:1027F0001A67D2E700F0F4FE06465A4B1B6F13F03F
:10280000020F08D000F0ECFE801B41F288339842A2
:10281000F3D9032096E0FDB9A369002B00F0918065
:10282000504A926802F00C02082A59D0022B19D0A3
:102830004C4A136823F08073136000F0D1FE044605
:10284000484B1B6813F0007F48D000F0C9FE001B06
:102850000228F5D9032075E0424A136C23F0805317
:102860001364D9E73F4A136823F08073136000F0C4
:10287000B7FE05463B4B1B6813F0007F06D000F007
:10288000AFFE401B0228F5D903205BE0E369226A12
:102890001343626A43EA8213A26A5208013A43EA86
:1028A0000243E26A43EA0263226B43EA02732D4A5F
:1028B0005360136843F08073136000F091FE044688
:1028C000284B1B6813F0007F06D100F089FE001B27
:1028D0000228F5D9032035E0002033E0002031E064
:1028E000204A5268012B2FD002F48003E1698B4209
:1028F0002CD102F03F03216A8B4229D1616A47F64D
:10290000C0731340B3EB811F24D102F44031A36A9A
:102910005B08013BB1EB034F1ED102F07063E16A2B
:10292000B3EB016F1AD102F0E042236BB2EB037FED
:1029300016D1002006E001207047012002E00120AE
:1029400000E0002002B070BD0120FBE70120F9E7A4
:102950000120F7E70120F5E70120F3E70120F1E787
:102960000120EFE700380240F8B52F4B9B6803F0D9
:102970000C03042B53D0082B53D12B4B5A6802F075
:102980003F025B6813F4800F28D0274B5B68C3F3CA
:10299000881358010021C01A61F100018E0146EA36
:1029A000906687013C1A66EB0105E90041EA547123
:1029B000E000C01841F100014B0243EAD053440249
:1029C000204619460023FDF78BFC174B5B68C3F3C9
:1029D000014301335B00B0FBF3F023E0124B5B6873
:1029E000C3F388135C010025E41A65F10005AE010C
:1029F00046EA9466A701381B66EB0501CC0044EA61
:102A00005074C500E81844F100018B0243EA90536A
:102A10008402204619460023FDF762FCD5E70348EF
:102A200000E00348F8BD00BF0038024000127A0001
:102A30000024F400002800F0A08070B50D46044684
:102A4000524B1B6803F00F038B420BD24F4A1368A3
:102A500023F00F030B431360136803F00F038B4243
:102A600040F08D80236813F0020F17D013F0040F8D
:102A700004D0474A936843F4E0539360236813F00B
:102A8000080F04D0424A936843F460439360404A7D
:102A9000936823F0F003A1680B439360236813F05D
:102AA000010F31D06368012B20D0022B25D0384A8A
:102AB000126812F0020F64D035498A6822F00302CE
:102AC00013438B6000F08CFD0646314B9B6803F08E
:102AD0000C036268B3EB820F16D000F081FD801BFF
:102AE00041F288339842F0D9032045E0284A126821
:102AF00012F4003FE0D101203EE0254A126812F0B6
:102B0000007FD9D1012037E0204B1B6803F00F0371
:102B1000AB420AD91D4A136823F00F032B431360FD
:102B2000136803F00F03AB422DD1236813F0040F99
:102B300006D0174A936823F4E053E1680B4393608F
:102B4000236813F0080F07D0114A936823F46043F9
:102B5000216943EAC1039360FFF706FF0C4B9B68B2
:102B6000C3F303130B4AD35CD8400B4B18600B4BD9
:102B7000186800F0F7FC002070BD012070470120AC
:102B8000FAE70120F8E70120F6E700BF003C024029
:102B900000380240F08000080000002008000020FB
:102BA000014B1868704700BF0000002008B5FFF710
:102BB000F7FF044B9B68C3F38223034AD35CD840DE
:102BC00008BD00BF003802400081000808B5FFF7CB
:102BD000E7FF044B9B68C3F34233034AD35CD840FE
:102BE00008BD00BF0038024000810008F0B583B086
:102BF0000446066816F001060DD0B54B9A6822F41B
:102C000000029A609A68416B0A439A60436B002BFA
:102C100000F055810026256815F4002511D0AC4A36
:102C2000D2F88C3023F44013E16B0B43C2F88C30A4
:102C3000E36BB3F5801F00F04481002B00F043816B
:102C40000025236813F4801F0FD0A14AD2F88C30DE
:102C500023F44003216C0B43C2F88C30236CB3F592
:102C6000800F00F0328103B90125236813F0807FC3
:102C700000D0012613F0200F40F02C81236813F0C0
:102C8000100F0CD0924BD3F88C2022F08072C3F836
:102C90008C20D3F88C20A16B0A43C3F88C202368C6
:102CA00013F4804F08D08A4AD2F8903023F440338E
:102CB000616E0B43C2F89030236813F4004F08D0C4
:102CC000834AD2F8903023F44023A16E0B43C2F81C
:102CD0009030236813F4803F08D07D4AD2F89030BA
:102CE00023F44013E16E0B43C2F89030236813F4D1
:102CF000003F08D0764AD2F8903023F44003216F89
:102D00000B43C2F89030236813F0400F08D0704A8C
:102D1000D2F8903023F00303616C0B43C2F890307B
:102D2000236813F0800F08D0694AD2F8903023F05E
:102D30000C03A16C0B43C2F89030236813F4807F1E
:102D400008D0634AD2F8903023F03003E16C0B4393
:102D5000C2F89030236813F4007F08D05C4AD2F8A0
:102D6000903023F0C003216D0B43C2F890302368EC
:102D700013F4806F08D0564AD2F8903023F4407391
:102D8000616D0B43C2F89030236813F4006F08D0D4
:102D90004F4AD2F8903023F44063A16D0B43C2F840
:102DA0009030236813F4805F08D0494AD2F89030FD
:102DB00023F44053E16D0B43C2F89030236813F4C1
:102DC000005F08D0424AD2F8903023F44043216E8D
:102DD0000B43C2F89030236813F4800F08D03C4AAC
:102DE000D2F8903023F08063A16F0B43C2F890308B
:102DF000236813F4001F0DD0354AD2F8903023F029
:102E00000063E16F0B43C2F89030E36FB3F1006FE2
:102E100000F0C680236813F0080F00D0012513F4DA
:102E2000802F08D02A4AD2F8903023F04073616F87
:102E30000B43C2F89030236813F4000F09D0244AE2
:102E4000D2F8903023F08053D4F880100B43C2F8AE
:102E50009030236813F0806F09D01D4AD2F890306B
:102E600023F00053D4F884100B43C2F89030236849
:102E700013F0006F09D0164AD2F88C3023F000739B
:102E8000D4F888100B43C2F88C30236813F0805FAD
:102E900009D00F4AD2F88C3023F08063D4F88C101C
:102EA0000B43C2F88C30002E7CD12368B3F1007F35
:102EB00078D0012D00F00981002003B0F0BD01267B
:102EC000A9E60126B9E60125BBE60126CBE600BF4F
:102ED00000380240B74B1A6C42F080521A641B6CE7
:102EE00003F080530193019BB34A136843F480734A
:102EF000136000F075FB0746AF4B1B6813F4807F2F
:102F000006D100F06DFBC01B6428F5D90320D4E77F
:102F1000A84B1B6F13F4407315D0226B02F4407260
:102F20009A4210D0A34B1A6F22F44072196F41F4E9
:102F300080311967196F21F4803119671A671B6F87
:102F400013F0010F12D1236B03F44072B2F5407FEE
:102F50001DD0984A936823F4F813936095490B6F3A
:102F6000226BC2F30B0213430B6787E600F038FBBA
:102F70000746904B1B6F13F0020FE4D100F030FBBB
:102F8000C01B41F288339842F3D9032095E7894862
:102F9000826822F4F812894919400A438260DDE709
:102FA000012537E7834A136823F08063136000F03C
:102FB00017FB06467F4B1B6813F0006F06D000F02E
:102FC0000FFB801B6428F5D9032076E7236813F0F4
:102FD000010F13D0636B8BB9764AD2F88430D2F8E4
:102FE0008410606803F4403343EA801301F0706199
:102FF0000B43A16843EA0173C2F88430236813F4D9
:10300000002F03D0E26BB2F5801F06D013F4801FAF
:103010001ED0236CB3F5800F1AD1664AD2F88430E3
:10302000D2F88410606803F4403343EA8013E06808
:1030300043EA006301F0E0410B43C2F88430D2F868
:103040008C3023F01F03616A01390B43C2F88C30C6
:10305000236813F0807F11D0564AD2F88400D2F84A
:103060008410666823691B0443EA861300F07060CD
:10307000034301F0E0410B43C2F88430236813F0AE
:10308000007F0DD0626823691B0443EA8213E26863
:1030900043EA0263A26843EA0273464AC2F88430F4
:1030A000444A136843F08063136000F099FA0646BF
:1030B000404B1B6813F0006F7FF4FBAE00F090FAFA
:1030C000801B6428F4D90320F7E63A4A136823F0FA
:1030D0008053136000F084FA0546364B1B6813F0EA
:1030E000005F06D000F07CFA401B6428F5D903206D
:1030F000E3E6236813F4002F01D0E26B22B113F44E
:10310000801F1DD0236CDBB92A4AD2F88830D2F850
:103110008810606903F4403343EA8013A06943EAEE
:10312000006301F0E0410B43C2F88830D2F88C30E4
:1031300023F4F853A16A013943EA0123C2F88C3021
:10314000236813F4001F03D0E36FB3F1006F37D08F
:10315000236813F0080F19D0164AD2F88810D2F855
:103160008830606903F4403343EA801301F07061F2
:103170000B43E16943EA0173C2F88830D2F88C301E
:1031800023F44033E16A0B43C2F88C30094A1368D8
:1031900043F08053136000F023FA0446054B1B688C
:1031A00013F0005F1FD100F01BFA001B6428F5D953
:1031B000032082E60038024000700040FFFCFF0F51
:1031C0000A4AD2F88800D2F888106569236A1B047D
:1031D00043EA851300F07060034301F0E0410B43C4
:1031E000C2F88830B4E7002067E600BF003802402C
:1031F00000230F2B00F2E380F0B583B039E0092201
:1032000000E00022B2403A4302346D4E46F82420DA
:103210006C4A1468EA4324EA05064F6817F4803FB5
:1032200001D045EA0406674C2660646802EA040699
:103230004F6817F4003F01D045EA0406614C666010
:10324000A46802EA04064F6817F4801F01D045EA1B
:1032500004065C4CA660E46822404E6816F4001F29
:1032600001D045EA0402574CE26001330F2B00F213
:10327000A48001229A400C6804EA020532EA0404A0
:10328000F3D14C68661E112C18BF012E01D9122CE7
:1032900012D186685F000324BC4026EA0406CC688D
:1032A000BC4034438460466826EA02064C68C4F396
:1032B00000129A4032434260C7685E000324B44063
:1032C000E24327EA04078C68B4403C43C4604C687E
:1032D000122C18BF022C13D1DF08083750F827E052
:1032E00003F007044FEA840C0F2404FA0CF42EEACE
:1032F000040E0C6904FA0CF444EA0E0440F827406A
:10330000046814404A6802F00302B240224302609B
:103310004A6812F0805FA8D02B4A546C44F4804471
:103320005464526C02F480420192019A9C08A61CDB
:10333000234A52F8267003F0030296000F22B2408F
:1033400027EA0207214A90423FF45BAF02F5806210
:10335000904222D002F58062904220D002F5806235
:1033600090421ED002F5806290421CD002F580622D
:1033700090421AD002F58062904218D002F5806225
:10338000904216D002F58062904214D002F580621D
:1033900090423FF434AF0A2234E7012232E702229E
:1033A00030E703222EE704222CE705222AE7062233
:1033B00028E7072226E7082224E703B0F0BD70477C
:1033C00000380140003C014000380240000002404B
:1033D0000369194201D001207047002070470AB1EB
:1033E00081617047090481617047704708B5054BDA
:1033F0005B69034200D108BD024B5861FFF7F5FF3E
:10340000F9E700BF003C0140024A136843F48073AF
:10341000136070470070004010B582B01B4B1A6CEF
:1034200042F080521A641B6C03F080530193019B9D
:10343000174A136843F48033136000F0D1F8044650
:10344000134B5B6813F4803F08D100F0C9F8001BF0
:10345000B0F57A7FF4D9032002B010BD0C4A13688E
:1034600043F40033136000F0BBF80446084B5B687C
:1034700013F4003F07D100F0B3F8001BB0F57A7FDA
:10348000F4D90320E8E70020E6E700BF0038024057
:10349000007000400649CB6823F4E0631B041B0C5A
:1034A000000200F4E0600343024A1A43CA60704716
:1034B00000ED00E00000FA0530B4154BDB68C3F303
:1034C0000223C3F10704042C28BF04241D1D062D6C
:1034D00014D9033B4FF0FF3505FA04F421EA040147
:1034E000994005FA03F322EA03031943002807DB96
:1034F0000901C9B2074B195430BC70470023E9E7F2
:1035000000F00F000901C9B2034B1954F4E700BFE2
:1035100000ED00E000E400E014ED00E0002807DB2F
:1035200000F01F02400901239340024A42F8203074
:10353000704700BF00E100E00138B0F1807F0AD29F
:10354000064B5860064AF02182F82310002098604C
:1035500007221A6070470120704700BF10E000E0AA
:1035600000ED00E010B504460E4B18784FF47A7366
:10357000B3FBF0F30C4A1068B0FBF3F0FFF7DCFF8D
:1035800068B90F2C01D901200AE0002221464FF032
:10359000FF30FFF791FF054B1C60002000E0012089
:1035A00010BD00BF04000020000000200800002023
:1035B00008B50320FFF76EFF0020FFF7D3FFFDF7EC
:1035C000E3F9002008BD0000034A1168034B1B7893
:1035D0000B441360704700BFF44700200400002034
:1035E000014B1868704700BFF447002038B5044607
:1035F000FFF7F6FF0546B4F1FF3F02D0044B1B78FE
:103600001C44FFF7EDFF401BA042FAD338BD00BFBA
:103610000400002003689A6912F0020F01D0002212
:103620009A6203689A6912F0010F03D19A6942F015
:1036300001029A61704770B4039E05686868740D52
:1036400004F4806444F07F7444F4583444F47F7488
:1036500044F0030420EA0400C1F3090141EA0241F5
:10366000194331430143696070BC7047F8B50546A2
:103670000E46174603689B6913F0100F01D1002016
:10368000F8BD2B689C6914F0200F17D1B6F1FF3FED
:10369000F7D0FFF7A5FFC01BB04201D8002EF0D134
:1036A0006B6C43F020036B64202385F841300023CA
:1036B00085F8423085F840300120E1E71022DA61D8
:1036C0002B682024DC612846FFF7A4FF2A68536892
:1036D00023F0FF7323F48B3323F4FF7323F00103F0
:1036E00053606B6C43F004036B6485F84140002326
:1036F00085F8423085F840300120C1E770B50446B6
:103700000D46164623689B6913F0020F1DD1324601
:1037100029462046FFF7AAFFC8B9B5F1FF3FF1D00F
:10372000FFF75EFF801BA84201D8002DEAD1636C31
:1037300043F020036364202384F84130002384F89D
:10374000423084F84030012000E0002070BD0120AC
:10375000FCE72DE9F0410646884617461D463468C9
:10376000A46938EA04030CBF01240024BC4218D128
:10377000B5F1FF3FF3D0FFF733FF069BC01AA84215
:1037800001D8002DEBD1736C43F020037364202328
:1037900086F84130002386F8423086F84030012018
:1037A00000E00020BDE8F08170B505460C461646E5
:1037B0002B689B6913F0200F1AD132462146284608
:1037C000FFF754FFB0B9FFF70BFF801BA04201D8F1
:1037D000002CEDD16B6C43F020036B64202385F843
:1037E0004130002385F8423085F84030012070BD1B
:1037F0000020FCE70120FAE770B504460D461646A6
:1038000023689B6913F0040F3ED1324629462046B7
:10381000FFF72CFF0146002838D123689A6912F07F
:10382000200F13D1FFF7DCFE801BA84201D8002D2A
:10383000E6D1636C43F020036364202384F84130B5
:10384000002384F840300121084670BD9A6912F0C7
:10385000040F02D0228D002AF6D12022DA612168DD
:103860004B6823F0FF7323F48B3323F4FF7323F0AF
:1038700001034B600023636484F8412084F84230E4
:1038800084F840300121DFE70021DDE70121DBE79B
:10389000002857D010B5044690F84130002B41D095
:1038A000242384F841302268136823F00103136055
:1038B0006368226823F0706313612268936823F4BD
:1038C00000439360E368012B31D0A368226843F47E
:1038D00004439360E368022B2FD0226851681A4B8F
:1038E0000B4353602268D36823F40043D3602369F9
:1038F00062691343A169226843EA0123D360E36943
:10390000216A22680B4313602268136843F00103A5
:10391000136000206064202384F84130206384F821
:10392000420010BD80F84030FDF752F8B8E7A368B8
:10393000226843F400439360CCE723684FF40062AD
:103940005A60CAE701207047008000022DE9F04765
:1039500082B00F460A9E90F84110C9B2202940F06B
:10396000A38004469046994690F84030012B00F021
:103970009F804FF0010A80F840A0FFF731FE054616
:103980000090192352464FF400412046FFF7E1FE14
:10399000002840F08F80212384F84130102384F8E0
:1039A000423000236364C4F82480A4F82A9063633F
:1039B000638D9BB2FF2B0AD9FF222285414B0093D6
:1039C0004FF0807339462046FFF735FE18E0628DD0
:1039D00092B222853B4B00934FF00073D2B239462E
:1039E0002046FFF728FE0BE0628D92B2228500236D
:1039F00000934FF00073D2B239462046FFF71BFE0A
:103A0000638D9BB2002B33D02A4631462046FFF708
:103A100075FE002850D1626A236812789A62636A40
:103A200001336362638D9BB2013B9BB26385238D3F
:103A3000013B9BB22385628D92B2002AE0D0002B1D
:103A4000DED100953346002280212046FFF781FE1B
:103A5000A0BB638D9BB2FF2BC6D9FF22228500231A
:103A600000934FF0807339462046FFF7E4FDC7E727
:103A70002A4631462046FFF797FE08BB23682022DE
:103A8000DA6121684B6823F0FF7323F48B3323F44E
:103A9000FF7323F001034B6084F84120002384F876
:103AA000423084F8403000E0022002B0BDE8F087E8
:103AB0000220FAE70120F8E70120F6E70120F4E709
:103AC0000120F2E7002000802DE9F04782B00F4688
:103AD0000A9E90F84110C9B2202940F0A280044605
:103AE0009046994690F84030012B00F09E804FF0B0
:103AF000010A80F840A0FFF773FD054600901923E6
:103B000052464FF400412046FFF723FE002840F0C4
:103B10008E80222384F84130102384F84230002321
:103B20006364C4F82480A4F82A906363638D9BB215
:103B3000FF2B0AD9FF222285414B00934FF080735F
:103B400039462046FFF777FD18E0628D92B2228554
:103B50003B4B00934FF00073D2B239462046FFF73B
:103B60006AFD0BE0628D92B22285002300934FF034
:103B70000073D2B239462046FFF75DFD638D9BB2DC
:103B8000002B32D02A4631462046FFF735FE00286A
:103B90004FD123685A6A636A1A70636A0133636299
:103BA000228D013A92B22285638D9BB2013B9BB27A
:103BB0006385638D9BB2002BE0D0002ADED1009597
:103BC000334680212046FFF7C4FDA0BB638D9BB226
:103BD000FF2BC7D9FF222285002300934FF080736B
:103BE00039462046FFF727FDC8E72A4631462046DA
:103BF000FFF7DAFD08BB23682022DA6121684B68F1
:103C000023F0FF7323F48B3323F4FF7323F00103BA
:103C10004B6084F84120002384F8423084F840301F
:103C200000E0022002B0BDE8F0870220FAE70120A0
:103C3000F8E70120F6E70120F4E70120F2E700BFF2
:103C40000024008038B50446836802691343426942
:103C50001343C2691343016808689F4A0240134333
:103C60000B602268536823F44053E1680B435360B0
:103C7000A269236A1A4321688B6823F430631343D3
:103C80008B602368954A934219D0954A934229D074
:103C9000944A93423ED0944A934262D0934A9342CC
:103CA00071D0934A934200F08380924A934200F08D
:103CB0009480914A934200F0A58010253AE08F4B02
:103CC000D3F8903003F00303032B09D8DFE803F0A7
:103CD0000204AE0601252DE004252BE0082529E08D
:103CE000102527E0854BD3F8903003F00C030C2B04
:103CF0000ED8DFE803F0070D0D0D090D0D0D9D0D1C
:103D00000D0D0B00002515E0042513E0082511E03A
:103D100010250FE0794BD3F8903003F03003202BBF
:103D200000F0888019D8002B00F08680102B40F01E
:103D300085800425E369B3F5004F00F0AB80082DC2
:103D400000F24081DFE815F00701180122013E0171
:103D50002B013E013E013E013501302B70D108257B
:103D6000E8E7664BD3F8903003F0C003802B69D0AE
:103D700005D8002B68D0402B68D10425DAE7C02B8A
:103D800066D10825D6E75D4BD3F8903003F4407335
:103D9000B3F5007F5ED006D8002B5DD0B3F5807FF1
:103DA0005CD10425C6E7B3F5407F59D10825C1E7AA
:103DB000524BD3F8903003F44063B3F5006F51D009
:103DC00006D8002B50D0B3F5806F4FD10425B1E752
:103DD000B3F5406F4CD10825ACE7484BD3F8903091
:103DE00003F44053B3F5005F44D006D8002B43D012
:103DF000B3F5805F42D104259CE7B3F5405F3FD126
:103E0000082597E73D4BD3F8903003F44043B3F5D2
:103E1000004F37D005D8BBB3B3F5804F36D104255A
:103E200088E7B3F5404F33D1082583E7022581E7C2
:103E300002257FE702257DE700257BE7102579E74E
:103E4000102577E7022575E7002573E7102571E750
:103E500010256FE702256DE700256BE7102569E760
:103E6000102567E7022565E7012563E7102561E76F
:103E700010255FE702255DE700255BE7102559E780
:103E8000102557E7022555E7002553E7102551E790
:103E900010254FE7082D5BD8DFE805F005323D5AC5
:103EA000465A5A5A5100FEF781FE6268530803EBE6
:103EB0004003B3FBF2F39BB2A3F110014FF6EF7294
:103EC000914200F282809AB222F00F02C3F34203C1
:103ED00013432268D3607BE0F369FFEF00100140D9
:103EE0000044004000480040004C004000500040AA
:103EF0000014014000780040007C0040003802407F
:103F0000FEF764FE6268530803EB4003B3FBF2F371
:103F10009BB20025D0E76268304B03EB5203B3FB42
:103F2000F2F39BB20025C7E7FEF71EFD6268530857
:103F300003EB4003B3FBF2F39BB20025BCE76268DE
:103F4000530803F58033B3FBF2F39BB20025B3E7CC
:103F500001250023B0E7FEF729FE626800EB52035B
:103F6000B3FBF2F39BB2A3F110014FF6EF72914253
:103F70002DD82268D3602BE0FEF728FE626800EBA4
:103F80005203B3FBF2F39BB20025ECE76268144BDB
:103F900003EB5203B3FBF2F39BB20025E3E7FEF71A
:103FA000E3FC626800EB5203B3FBF2F39BB2002523
:103FB000D9E76268530803F50043B3FBF2F39BB201
:103FC0000025D0E701250023CDE7012500E00125EC
:103FD000002323666366284638BD00BF0048E80119
:103FE0000024F400436A13F0010F06D002685368FE
:103FF00023F40033816A0B435360436A13F0020FCA
:1040000006D00268536823F48033C16A0B435360BF
:10401000436A13F0040F06D00268536823F4802328
:10402000016B0B435360436A13F0080F06D002681C
:10403000536823F40043416B0B435360436A13F00E
:10404000100F06D00268936823F48053816B0B43F2
:104050009360436A13F0200F06D00268936823F43C
:104060000053C16B0B439360436A13F0400F0AD0B7
:104070000268536823F48013016C0B435360036C94
:10408000B3F5801F0BD0436A13F0800F06D002688F
:10409000536823F40023816C0B435360704702681C
:1040A000536823F4C003416C0B435360EBE72DE9E5
:1040B000F84305460F4616469946DDF820802C68E1
:1040C000E46937EA04030CBF01240024B4423CD164
:1040D000B8F1FF3FF3D0FFF783FAA0EB09004045AA
:1040E00021D8B8F1000F1ED02B681A6812F0040F07
:1040F000E5D0DA6912F4006FE1D04FF400621A6281
:104100002A68136823F4D07313602A68936823F035
:104110000103936020236B67AB67EB67002385F88F
:104120007030032012E02A68136823F4D073136000
:104130002A68936823F00103936020236B67AB67C1
:10414000002385F87030032000E00020BDE8F883EC
:104150002DE9F04182B01E46436F202B59D1044611
:104160000D469046B2FA82F35B09002908BF01238D
:10417000002B52D190F87030012B50D0012380F8E1
:1041800070300023C36721234367FFF729FA0746EE
:10419000A4F85080A4F85280A368B3F5805F05D0DE
:1041A0004FF00008002384F8703014E0236913B145
:1041B0004FF00008F6E7A8460025F3E738F8023B81
:1041C0002268C3F308039362B4F8522092B2013A12
:1041D00092B2A4F85220B4F852309BB273B1009658
:1041E0003B46002280212046FFF761FFC8B9002D21
:1041F000E4D015F8012B23689A62E5E700963B4668
:10420000002240212046FFF752FF60B92023636758
:1042100000E0022002B0BDE8F0810120FAE70220B0
:10422000F8E70320F6E70320F4E730B583B004464F
:104230000023C367FFF7D4F9054623681B6813F012
:10424000080F0CD123681B6813F0040F15D120232D
:104250006367A367002084F8700003B030BD6FF07F
:104260007E430093034600224FF400112046FFF7DF
:104270001EFF0028E6D00320EFE76FF07E43009397
:104280002B4600224FF480012046FFF710FF002844
:10429000DDD00320E1E768B310B50446436F03B3F4
:1042A000242363672268136823F001031360204608
:1042B000FFF7C8FC012813D0636ABBB922685368B2
:1042C00023F4904353602268936823F02A03936099
:1042D0002268136843F0010313602046FFF7A5FF2F
:1042E00010BD80F87030FCF79DFBD9E72046FFF742
:1042F00079FEE3E701207047C0B108B50346D0F866
:10430000B80210B10020C3F8B802D3F8CC0210B143
:104310000020C3F8CC0209B1C3F8B412012183F81C
:104320009C121A70184602F091FD08BD03207047D8
:1043300010B582B00023ADF8063059B10446C0F87C
:10434000B8128B6A0DF106009847C4F8CC02002021
:1043500002B010BD0320FBE708B502F003FE08BD64
:1043600008B5D0F8B83213B11B68984708BD0320D0
:10437000FCE708B5D0F8B8320BB15B68984700206D
:1043800008BD38B5044600F2AA25284600F02DF9EC
:104390000123C4F89432B4F8B032C4F8983294F8D7
:1043A000AA1201F01F03012B0DD0022B10D02BB14C
:1043B00001F08001204602F0F0FD03E0294620468E
:1043C00000F0DEFA38BD2946204600F011FBF9E77F
:1043D0002946204600F040FBF4E738B504460D4678
:1043E00031BB1346D0F89422032A01D0084638BDC9
:1043F000D0F85C11D0F8602191420CD8D0F8B832D6
:104400001B691BB190F89C22032A0FD0204600F0B4
:1044100064FC2846EBE7891AC0F85C118A4228BF81
:104420000A46194600F051FC2846E0E79847EDE7B8
:10443000D0F8B8329B692BB190F89C22032A03D1A3
:104440009847D4E70320D2E70320D0E738B50446E5
:104450000D46002948D11346D0F89422022A05D0EF
:1044600094F8A032012B3AD0284638BDC269016ABF
:104470008A4211D88A421BD0D4F8B832DB681BB10B
:1044800094F89C22032A27D08021204602F085FD43
:10449000204600F02DFCE3E7521AC261194600F0F5
:1044A0000CFC00231A461946204602F096FDD7E779
:1044B00083699942E0D8D0F898229342DCD2002256
:1044C000114600F0FAFB0021C4F898120B460A4688
:1044D000204602F082FDC3E720469847D4E7002338
:1044E00084F8A0322846C0E7D0F8B8325B692BB117
:1044F00090F89C22032A03D19847B6E70320B4E73B
:104500000320B2E770B50446012380F89C320023F3
:10451000C0F894324360C0F8A432D0F8BC3223B162
:10452000D0F8B8325B68002198474023002211463A
:10453000204602F01FFD0126A4F864614025C4F85E
:1045400060512B4600228021204602F013FDA684F4
:104550002562002070BD01740020704790F89C32E5
:1045600080F89D32042380F89C320020704790F838
:104570009C32042B01D00020704790F89D3280F8C7
:104580009C32F8E708B590F89C32032B01D000204C
:1045900008BDD0F8B832DB69002BF8D09847F6E7B1
:1045A00000207047002070470020704708B50123A5
:1045B00080F89C32D0F8B83213B15B680179984723
:1045C000002008BD034600201A781AB10130C0B29D
:1045D0000133F9E7704708B54B88012B00D008BDBF
:1045E000C0F8A43200F079FBF9E70B7803704B7840
:1045F00043708B78CA7843EA022343800B794A7967
:1046000043EA022383808B79CA7943EA0223C38079
:10461000704710B50446802102F0BFFC00212046FF
:1046200002F0BBFC10BD30B583B004460D4600233C
:10463000ADF806304A88130A013B0E2B00F2BC800D
:10464000DFE803F0153044BABA9EABBABABABABAC8
:10465000BABA0800D0F8B432DB6923B10DF1060113
:10466000007C98470AE02946FFF7D3FF18E0D0F80E
:10467000B4321B680DF10601007C9847EA88002AD5
:1046800000F0A380BDF80630002B00F099809A421C
:1046900028BF1A46ADF806200146204600F000FB70
:1046A00003B030BD037C43B9D0F8B8329B6A0DF13A
:1046B0000600984702234370E0E7D0F8B832DB6A7F
:1046C0000DF10600984702234370D7E7D2B2052ABE
:1046D00052D8DFE802F003101D2A3744D0F8B43274
:1046E0005B6823B10DF10601007C9847C6E72946B7
:1046F000FFF78FFFD4E7D0F8B4329B6823B10DF1F8
:104700000601007C9847B9E72946FFF782FFC7E713
:10471000D0F8B432DB6823B10DF10601007C984774
:10472000ACE72946FFF775FFBAE7D0F8B4321B694A
:1047300023B10DF10601007C98479FE72946FFF75A
:1047400068FFADE7D0F8B4325B6923B10DF1060123
:10475000007C984792E72946FFF75BFFA0E7D0F877
:10476000B4329B6923B10DF10601007C984785E7BF
:104770002946FFF74EFF93E72946FFF74AFF8FE7E9
:10478000037C33B9D0F8B8325B6B0DF10600984763
:1047900074E72946FFF73DFF82E7037C43B9D0F871
:1047A000B8321B6B0DF1060098470723437065E78D
:1047B0002946FFF72EFF73E72946FFF72AFF6FE729
:1047C00029462046FFF725FF6AE7204600F085FAD4
:1047D00066E738B504468B88F3B9CB88E3B94B88D4
:1047E0007F2B19D803F07F0590F89C32032B0CD057
:1047F00080F89E52294602F0E0FB204600F06DFA58
:1048000035B1022384F89C3209E0FFF702FF06E08D
:10481000012384F89C3202E02046FFF7FAFE38BDFF
:1048200070B504460E468D782D4B1D70012D0FD8A6
:1048300090F89C32022B0FD0032B23D0FFF7E9FE18
:10484000274B19782046FFF794FD0325284670BDB5
:10485000FFF7DFFE0325F9E78DB145602946FFF735
:104860007FFD054620B131462046FFF7D2FEEDE739
:10487000204600F032FA032384F89C32E6E700F089
:104880002CFAE3E7CDB141688D4225D0C9B2FFF7DC
:1048900070FD134B197861602046FFF761FD0546F6
:1048A000B0B131462046FFF7B4FE21792046FFF72C
:1048B00060FD022384F89C32C8E7022380F89C3212
:1048C00045602946FFF755FD204600F006FABDE792
:1048D000204600F002FAB9E700F0FFF90025B5E73D
:1048E000B808002008B5CB88012B0AD190F89C327B
:1048F000022B09D9032B09D10122011D00F0D0F9A7
:1049000001E0FFF786FE08BD5BB213B9FFF781FE39
:10491000F9E70146002341F8083F012200F0C0F901
:10492000F1E708B590F89C32013B022B12D8CB88F6
:10493000022B0CD10123C360D0F8A4320BB10323A6
:10494000C360022200F10C0100F0AAF908BDFFF7D4
:1049500060FEFBE7FFF75DFEF8E708B590F89C32D4
:10496000013B022B09D84B88012B00D008BD002346
:10497000C0F8A43200F0B1F9F8E7FFF74AFEF5E716
:1049800038B50C7804F06004202C06D0402C04D0FC
:1049900054B1FFF73EFE002404E0D0F8B8329B6823
:1049A00098470446204638BD4D78092D1DD8DFE8CC
:1049B00005F012191C161C08051C0F0BFFF733FE1F
:1049C000F0E7FFF706FFEDE7FFF72AFF0446E9E708
:1049D000FFF788FFE6E7FFF7A4FF2C46E2E7FFF7C3
:1049E000FAFDDFE7FFF7B9FFDCE7FFF712FED9E7D3
:1049F00070B505460C460B7803F06003202B07D0FA
:104A0000402B05D023B1FFF704FE0026304670BDD1
:104A100095F89C32013B022B18D82379012B0FD833
:104A2000D5F8B8329B682146284698470646E38861
:104A3000002BEBD10028E9D1284600F04EF9E5E73C
:104A400021462846FFF7E5FD0026DFE721462846F8
:104A5000FFF7DFFD0026D9E7F8B506460D468B883F
:104A60000C7804F06004202C08D0D9B2402C05D07A
:104A70006CB12946FFF7CDFD002406E0D6F8B83228
:104A80009B6829463046984704462046F8BD6F7813
:104A9000012F37D0032F05D0002F63D02946FFF711
:104AA000B8FDF2E790F89C32022B05D0032B16D00C
:104AB0002946FFF7AEFDE8E7B1F1800318BF0123F7
:104AC000002908BF002333B102F067FA8021304685
:104AD00002F063FAD9E72946FFF79BFDD5E76B881B
:104AE0004BB9B1F1800318BF0123002908BF00238F
:104AF0000BB1EB881BB1304600F0EFF8C5E702F0D0
:104B00004CFAF8E790F89C32022B05D0032B16D014
:104B10002946FFF77EFDB8E7B1F1800318BF0123F6
:104B2000002908BF002333B102F037FA8021304654
:104B300002F033FAA9E72946FFF76BFDA5E76B887A
:104B4000002BA2D111F07F0F09D1304600F0C5F83B
:104B5000D6F8B8329B6829463046984795E702F068
:104B600024FAF2E790F89C22022A06D0032A2ED0DB
:104B70002946FFF74EFD3C4687E7B1F1800218BF9A
:104B80000122002908BF00229AB913F0800F15D125
:104B900001F07F0101EB8101890001F5A871014459
:104BA000043100230B600222304600F079F83C46C5
:104BB0006BE72946FFF72DFD3C4666E701F07F01D4
:104BC00001EB81018900103101440431E9E75BB256
:104BD000002B24DB01F00F0202EB820200EB8202C9
:104BE000B2F864214AB3002B2CDB01F07F0303EB06
:104BF00083039C0004F5A87434440434802914BF52
:104C000000230123002908BF012323B300232360CD
:104C100002222146304600F043F83C4635E701F0D9
:104C20000F0202EB820200EB8202928C002ADAD1A0
:104C30002946FFF7EEFC3C4627E72946FFF7E9FC4B
:104C40003C4622E701F07F0303EB83039C00103412
:104C500034440434D2E7304602F030F910B1012375
:104C60002360D5E700232360D2E7C0B170B50D46BD
:104C700016460446FFF7A6FC01304000308028703D
:104C800003236B700223227842B1EA5401345A1C88
:104C9000D2B20021A9540233DBB2F4E770BD7047F1
:104CA00010B513460222C0F894228361C3610A46FC
:104CB000002102F08AF9002010BD08B513460A460B
:104CC000002102F082F9002008BD08B513460A460B
:104CD000002102F082F9002008BD08B50423C0F8C5
:104CE000943200231A46194602F06FF9002008BDDD
:104CF00008B50523C0F8943200231A46194602F07D
:104D00006CF9002008BD0000222303800048704792
:104D1000900000202223038000487047B400002048
:104D20002223038000487047F0000020D0F8BC32F6
:104D300000201873704700000A2303800048704762
:104D4000E400002070B582B0D0F8BC520023ADF86A
:104D500006300C7814F0600425D0202C72D14B78EA
:104D6000023B092B1BD8DFE803F014091A1A1A1AA0
:104D70001A1A0F058B782B60002466E00122294661
:104D8000FFF78EFF002460E04B881B0A6B60002455
:104D90005BE00122291DFFF783FF002455E0FFF7A8
:104DA00038FC032451E04E780B2E47D8DFE806F09C
:104DB000064D46464646154646462D3B90F89C32E3
:104DC000032B03D0FFF725FC03243EE002220DF164
:104DD0000601FFF765FF344637E04B881B0A222B9C
:104DE00009D0212B0DD1CA88092A28BF09221849C8
:104DF000FFF756FF29E0CA884A2A28BF4A221549E8
:104E0000F6E7FFF706FC03241FE090F89C32032B23
:104E100003D0FFF7FEFB032417E0012205F1080190
:104E2000FFF73EFF11E090F89C32032B02D18B7804
:104E3000AB600AE0FFF7EDFB032406E0FFF7E9FBB8
:104E4000032402E0FFF7E5FB0324204602B070BD17
:104E5000D80000200C00002010B50446812102F08B
:104E600094F8002323876387D4F8BC0220B102F0B2
:104E700013F90023C4F8BC32002010BD38B5044635
:104E8000102002F001F988B10546C4F8BC02237C69
:104E90008BB907236387042303228121204602F074
:104EA00069F8012323870020287338BD0023C4F844
:104EB000BC320220F9E70A236387ECE770B50C46A1
:104EC00016460025B54205DA14F8010BFBF7D0FFB2
:104ED0000135F7E7304670BD00F1080343604FF03D
:104EE000FF328260C36003610023036070470023C8
:104EF0000361704743684B609A688A6051609960AB
:104F00000861036801330360704730B40D68B5F180
:104F1000FF3F11D000F108031C465B681A68AA42E3
:104F2000FAD963684B6099608C60616008610368BE
:104F30000133036030BC70470469F2E703694168DC
:104F400082688A60416851605A68824206D00022B5
:104F500002611A68013A1A601868704782685A60DC
:104F6000F5E710B5044601F095FCA26BE36B9A429D
:104F700004D0002401F0B4FC204610BD0124F9E760
:104F800010B5044601F086FCA36B23B9012401F09F
:104F9000A7FC204610BD0024F9E770B5044615466D
:104FA000866B026C5AB903681BB100200136A663F8
:104FB00070BD806801F046F80023A360F6E76DB984
:104FC000406802F071F8226C636813446360A26861
:104FD000934219D3236863602846E7E7C06802F06C
:104FE00063F8226C5142E3689B1AE36022689342A3
:104FF00002D2A3680B44E360022D01D00020D5E764
:1050000026B1013E0020D1E72846CFE70020CDE7BA
:105010000346026C6AB110B50846D9681144D960DC
:105020009C68A14201D31968D960D96802F03CF8A4
:1050300010BD704738B5054601F02CFC95F8454089
:1050400064B203E000F0E8FF013C64B2002C08DD2C
:105050006B6A33B105F1240000F042FF0028F3D061
:10506000F0E7FF2385F8453001F03AFC01F012FC2F
:1050700095F8444064B203E000F0CEFF013C64B216
:10508000002C08DD2B6933B105F1100000F028FF7A
:105090000028F3D0F0E7FF2385F8443001F020FC2E
:1050A00038BD000038B5E0B10D46044601F0F2FB12
:1050B0002168E26B236C03FB0210A0600020A06358
:1050C0006160013A02FB0313E360FF2384F844307C
:1050D00084F84530FDB9236973B901F001FC012062
:1050E00038BD4FF0500372B683F31188BFF36F8F52
:1050F000BFF34F8F62B6FEE704F1100000F0F0FE40
:105100000028EAD0084B4FF080521A60BFF34F8F4F
:10511000BFF36F8FE1E704F11000FFF7DDFE04F14C
:105120002400FFF7D9FED8E704ED00E038B51D46AE
:10513000049C0B4649B92460E063236401212046A6
:10514000FFF7B0FF84F84C5038BD2260F4E750B947
:105150004FF0500372B683F31188BFF36F8FBFF324
:105160004F8F62B6FEE730B585B01C468BB10B1E83
:1051700018BF0123002A08BF0123ABB94FF0500329
:1051800072B683F31188BFF36F8FBFF34F8F62B690
:10519000FEE74FF0500372B683F31188BFF36F8FB1
:1051A000BFF34F8F62B6FEE7B1FA81F35B09002AC5
:1051B00018BF012353B94FF0500372B683F311881F
:1051C000BFF36F8FBFF34F8F62B6FEE75023039399
:1051D000039B502B0AD04FF0500372B683F3118813
:1051E000BFF36F8FBFF34F8F62B6FEE7039B0123C0
:1051F00084F8463000949DF82030FFF797FF204652
:1052000005B030BDF0B585B0019298B10E461D468F
:105210000446D1B1022D26D1E36B012B23D04FF0F0
:10522000500372B683F31188BFF36F8FBFF34F8FB4
:1052300062B6FEE74FF0500372B683F31188BFF3F6
:105240006F8FBFF34F8F62B6FEE7036C002BE1D088
:105250004FF0500372B683F31188BFF36F8FBFF323
:105260004F8F62B6FEE700F0DDFE074668B9019B8E
:10527000002B46D04FF0500372B683F31188BFF372
:105280006F8FBFF34F8F62B6FEE7002739E02A46E3
:1052900031462046FFF781FE626A6AB938B13C4B5D
:1052A0004FF080521A60BFF34F8FBFF36F8F01F042
:1052B00017FB012005B0F0BD04F1240000F010FE42
:1052C0000028F4D0324B4FF080521A60BFF34F8F5A
:1052D000BFF36F8FEBE701F003FB0020EAE702A8C2
:1052E00000F046FE012719E0002384F8443021E055
:1052F000002384F8453023E02046FFF79BFE00F0B2
:10530000C3FC01F0C7FAA26BE36B9A42BFD3022D34
:10531000BDD0019B002BDED0002FE0D001F0E0FAE1
:1053200000F014FC01F0B6FA94F844305BB2B3F12B
:10533000FF3FD9D094F845305BB2B3F1FF3FD7D0EF
:1053400001F0CEFA01A902A800F01EFEC8B920465D
:10535000FFF707FE0028CFD0019904F1100000F0FC
:1053600087FD2046FFF766FE00F08EFC0028C8D1BE
:10537000074B4FF080521A60BFF34F8FBFF36F8F10
:10538000BFE72046FFF756FE00F07EFC002091E7C5
:1053900004ED00E02DE9F843A0B1894690461F4690
:1053A0000446D1B1022F26D1E36B012B23D04FF05D
:1053B000500372B683F31188BFF36F8FBFF34F8F23
:1053C00062B6FEE74FF0500372B683F31188BFF365
:1053D0006F8FBFF34F8F62B6FEE7036C002BE1D0F7
:1053E0004FF0500372B683F31188BFF36F8FBFF392
:1053F0004F8F62B6FEE701F059FBEFF311864FF0D5
:10540000500372B683F31188BFF36F8FBFF34F8FD2
:1054100062B6A26BE36B9A4206D3022F04D000203F
:1054200086F31188BDE8F88394F845506DB2A36BFC
:105430003A4649462046FFF7B0FDB5F1FF3F07D099
:105440007F2D15D06B1C5BB284F845300120E7E757
:10545000636A0BB90120E3E704F1240000F040FD8A
:1054600088B1B8F1000F10D00120C8F80000D7E7CC
:105470004FF0500372B683F31188BFF36F8FBFF301
:105480004F8F62B6FEE70120CAE70120C8E700009F
:10549000F0B585B00192A0B10E460446E1B100F02E
:1054A000C1FD074630BB019B002B62D04FF050037B
:1054B00072B683F31188BFF36F8FBFF34F8F62B65D
:1054C000FEE74FF0500372B683F31188BFF36F8F7E
:1054D000BFF34F8F62B6FEE7036C002BDFD04FF0B7
:1054E000500372B683F31188BFF36F8FBFF34F8FF2
:1054F00062B6FEE700273CE031462046FFF788FD14
:10550000013DA563236923B901F0EAF9012005B043
:10551000F0BD04F1100000F0E3FC0028F4D0354B9E
:105520004FF080521A60BFF34F8FBFF36F8FEBE7DE
:1055300001F0D6F90020EAE702A800F019FD0127E2
:1055400021E0002384F8443029E0002384F845302A
:105550002BE02046FFF76EFD00F096FB09E02046A9
:10556000FFF768FD00F090FB2046FFF709FD0028DB
:105570003DD101F08FF9A56B002DBDD1019B002B12
:10558000D6D0002FD8D001F0ABF900F0DFFA01F04F
:1055900081F994F844305BB2B3F1FF3FD1D094F875
:1055A00045305BB2B3F1FF3FCFD001F099F901A9CB
:1055B00002A800F0E9FC0028D1D12046FFF7E0FC6A
:1055C0000028C6D0019904F1240000F051FC2046C7
:1055D000FFF730FD00F058FB0028CAD1054B4FF013
:1055E00080521A60BFF34F8FBFF36F8FC1E7002067
:1055F0008DE700BF04ED00E060B110B40A46044638
:1056000099B10023072B21D8124951F83310B9B1B1
:105610000133F7E74FF0500372B683F31188BFF3FD
:105620006F8FBFF34F8F62B6FEE74FF0500372B635
:1056300083F31188BFF36F8FBFF34F8F62B6FEE71E
:10564000044941F8332001EBC3035C605DF8044B6F
:10565000704700BFF847002070B504460D46164657
:1056600001F018F994F844305BB2B3F1FF3F0DD06C
:1056700094F845305BB2B3F1FF3F0BD001F030F945
:10568000A36B5BB12046FFF7D5FC70BD002384F807
:105690004430EDE7002384F84530EFE732462946F1
:1056A00004F1240000F0FEFBECE70000074B1B6850
:1056B0001B6823B9064B4FF0FF321A607047034B4B
:1056C0001B68DB681A68024B1A607047C00800202C
:1056D000540900202DE9F84F80460D46934699461F
:1056E0000A9EDDF82CA00C9C9200A521206B01F0F5
:1056F000E9FC276B6FF040435B4407EB830727F01F
:10570000070785B300220F2A07D8A95CA31883F8DE
:105710003410AB5C0BB10132F5E7002384F8433061
:10572000032E00D90326E662E66400252565201DC8
:10573000FFF7DDFB04F11800FFF7D9FB2461C6F188
:105740000406A6616462656584F858504A4641467D
:10575000384601F071F82060BAF1000F01D0CAF8A4
:105760000040BDE8F88F002384F83430D8E700000B
:1057700038B5002407E004EB840293000E48184477
:10578000FFF7AAFB0134032CF5D90C4D2846FFF78F
:10579000A3FB0B4C2046FFF79FFB0A48FFF79CFB3F
:1057A0000948FFF799FB0948FFF796FB084B1D6076
:1057B000084B1C6038BD00BFC80800202C09002021
:1057C00040090020600900208C0900207809002091
:1057D000C0080020C408002010B5044601F05AF8A3
:1057E000214A136801331360204B1B685BB1204BC7
:1057F0001B686BB91D4B1B68DA6AE36A9A4207D8CB
:105800001A4B1C6004E0194B1C601368012B27D055
:10581000184A1368013313606364E06A164B1B680F
:10582000984201D9144B186000EB8000211D134BE6
:1058300003EB8000FFF75EFB01F052F80C4B1B6896
:105840006BB10A4B1B68DA6AE36A9A4207D20C4BC7
:105850004FF080521A60BFF34F8FBFF36F8F10BDB0
:10586000FFF786FFD4E700BF18090020BC0800201E
:10587000740900202409002028090020C8080020FD
:1058800004ED00E010B5044690F8593073B1012BD7
:1058900013D0022B10D04FF0500372B683F311884F
:1058A000BFF36F8FBFF34F8F62B6FEE7006B00F060
:1058B0003FFF204600F03CFF10BD00F039FFFBE742
:1058C0000F4B1B68D3B110B500F0E4FF0D4BDB6844
:1058D000DC68201DFFF732FB0B4A1368013B1360A5
:1058E000074A1368013B136000F0FAFF2046FFF7F8
:1058F000C9FF034B1B68002BE6D110BD704700BFEA
:105900001C0900208C0900201809002070B50446ED
:105910000D46194B1E68194B18680430FFF70EFB33
:10592000B4F1FF3F14BF00230123002D08BF002363
:105930006BB93444114B1B685C60A6420ED9104B06
:1059400018680E4B19680431FFF7DFFA70BD0B4B76
:10595000196804310B48FFF7CDFAF7E70A4B1868CE
:10596000064B19680431FFF7D0FA084B1B68A342B5
:10597000ECD9064B1C60E9E7A0090020BC08002018
:10598000C408002078090020C00800205409002025
:1059900008B509E0084B4FF080521A60BFF34F8FF3
:1059A000BFF36F8FFAF7B2FFFFF78AFF034B1B6855
:1059B000012BEFD8F6E700BF04ED00E0C808002097
:1059C00070B586B00B9D0C9C85B1D4B15C26049655
:1059D000049E5C2E20D04FF0500372B683F31188E2
:1059E000BFF36F8FBFF34F8F62B6FEE74FF05003E8
:1059F00072B683F31188BFF36F8FBFF34F8F62B618
:105A0000FEE74FF0500372B683F31188BFF36F8F38
:105A1000BFF34F8F62B6FEE7049E2563022584F82C
:105A2000595000250395029405AD01950A9D0095F6
:105A3000FFF750FE2046FFF7CFFE059806B070BD79
:105A40002DE9F04385B00746884614461E4690006F
:105A500000F0E2FD00B381465C2000F0DDFD05466C
:105A6000B0B1C0F83090E5B1002385F85930039308
:105A700002950D9B01930C9B0093334622464146B1
:105A80003846FFF727FE2846FFF7A6FE012005E06F
:105A9000484600F04DFEE6E74FF0FF3005B0BDE8A8
:105AA000F0834FF0FF30F9E710B588B0002405947B
:105AB000069407AA06A905A8FAF710FF059B02930A
:105AC000069B019300942346079A1A491A48FFF748
:105AD00077FF58B100F072FB0346012B08D0B3F1F9
